{
  "contractName": "Certificates",
  "abi": [
    {
      "anonymous": false,
      "inputs": [
        {
          "indexed": true,
          "internalType": "address",
          "name": "previousOwner",
          "type": "address"
        },
        {
          "indexed": true,
          "internalType": "address",
          "name": "newOwner",
          "type": "address"
        }
      ],
      "name": "OwnershipTransferred",
      "type": "event"
    },
    {
      "anonymous": false,
      "inputs": [
        {
          "indexed": false,
          "internalType": "address",
          "name": "account",
          "type": "address"
        }
      ],
      "name": "Paused",
      "type": "event"
    },
    {
      "anonymous": false,
      "inputs": [
        {
          "indexed": false,
          "internalType": "address",
          "name": "account",
          "type": "address"
        }
      ],
      "name": "Unpaused",
      "type": "event"
    },
    {
      "inputs": [],
      "name": "owner",
      "outputs": [
        {
          "internalType": "address",
          "name": "",
          "type": "address"
        }
      ],
      "stateMutability": "view",
      "type": "function",
      "constant": true
    },
    {
      "inputs": [],
      "name": "paused",
      "outputs": [
        {
          "internalType": "bool",
          "name": "",
          "type": "bool"
        }
      ],
      "stateMutability": "view",
      "type": "function",
      "constant": true
    },
    {
      "inputs": [],
      "name": "renounceOwnership",
      "outputs": [],
      "stateMutability": "nonpayable",
      "type": "function"
    },
    {
      "inputs": [],
      "name": "schoolcount",
      "outputs": [
        {
          "internalType": "uint256",
          "name": "",
          "type": "uint256"
        }
      ],
      "stateMutability": "view",
      "type": "function",
      "constant": true
    },
    {
      "inputs": [
        {
          "internalType": "uint256",
          "name": "",
          "type": "uint256"
        }
      ],
      "name": "scl",
      "outputs": [
        {
          "internalType": "uint256",
          "name": "school_id",
          "type": "uint256"
        },
        {
          "internalType": "string",
          "name": "school_name",
          "type": "string"
        },
        {
          "internalType": "bool",
          "name": "registered",
          "type": "bool"
        }
      ],
      "stateMutability": "view",
      "type": "function",
      "constant": true
    },
    {
      "inputs": [
        {
          "internalType": "uint256",
          "name": "",
          "type": "uint256"
        }
      ],
      "name": "student",
      "outputs": [
        {
          "internalType": "uint256",
          "name": "aadhar_no",
          "type": "uint256"
        },
        {
          "internalType": "string",
          "name": "fname",
          "type": "string"
        },
        {
          "internalType": "string",
          "name": "lname",
          "type": "string"
        },
        {
          "internalType": "uint256",
          "name": "certcount",
          "type": "uint256"
        },
        {
          "internalType": "bool",
          "name": "register",
          "type": "bool"
        }
      ],
      "stateMutability": "view",
      "type": "function",
      "constant": true
    },
    {
      "inputs": [
        {
          "internalType": "address",
          "name": "newOwner",
          "type": "address"
        }
      ],
      "name": "transferOwnership",
      "outputs": [],
      "stateMutability": "nonpayable",
      "type": "function"
    },
    {
      "inputs": [
        {
          "internalType": "string",
          "name": "scl_name",
          "type": "string"
        }
      ],
      "name": "addSchool",
      "outputs": [],
      "stateMutability": "nonpayable",
      "type": "function"
    },
    {
      "inputs": [
        {
          "internalType": "uint256",
          "name": "sch_id",
          "type": "uint256"
        },
        {
          "internalType": "bool",
          "name": "reg",
          "type": "bool"
        }
      ],
      "name": "registerschool",
      "outputs": [],
      "stateMutability": "nonpayable",
      "type": "function"
    },
    {
      "inputs": [
        {
          "internalType": "uint256",
          "name": "aadhar",
          "type": "uint256"
        },
        {
          "internalType": "string",
          "name": "f_name",
          "type": "string"
        },
        {
          "internalType": "string",
          "name": "l_name",
          "type": "string"
        }
      ],
      "name": "addStudent",
      "outputs": [],
      "stateMutability": "nonpayable",
      "type": "function"
    },
    {
      "inputs": [
        {
          "internalType": "uint256",
          "name": "aadhar",
          "type": "uint256"
        },
        {
          "internalType": "bool",
          "name": "reg",
          "type": "bool"
        }
      ],
      "name": "registerstudent",
      "outputs": [],
      "stateMutability": "nonpayable",
      "type": "function"
    },
    {
      "inputs": [
        {
          "internalType": "uint256",
          "name": "schoolId",
          "type": "uint256"
        },
        {
          "internalType": "uint256",
          "name": "studentaadhar",
          "type": "uint256"
        },
        {
          "internalType": "string",
          "name": "hash",
          "type": "string"
        }
      ],
      "name": "addCertificate",
      "outputs": [],
      "stateMutability": "nonpayable",
      "type": "function"
    },
    {
      "inputs": [
        {
          "internalType": "uint256",
          "name": "aadhar",
          "type": "uint256"
        }
      ],
      "name": "getStudent",
      "outputs": [
        {
          "internalType": "string",
          "name": "",
          "type": "string"
        },
        {
          "internalType": "string",
          "name": "",
          "type": "string"
        },
        {
          "internalType": "uint256",
          "name": "",
          "type": "uint256"
        }
      ],
      "stateMutability": "view",
      "type": "function",
      "constant": true
    },
    {
      "inputs": [
        {
          "internalType": "uint256",
          "name": "aadhar",
          "type": "uint256"
        },
        {
          "internalType": "uint256",
          "name": "count",
          "type": "uint256"
        }
      ],
      "name": "getCertificates",
      "outputs": [
        {
          "internalType": "string",
          "name": "",
          "type": "string"
        },
        {
          "internalType": "uint256",
          "name": "",
          "type": "uint256"
        }
      ],
      "stateMutability": "view",
      "type": "function",
      "constant": true
    }
  ],
  "bytecode": "0x60806040526000600155600060025534801561001a57600080fd5b50600061002b6100e860201b60201c565b9050806000806101000a81548173ffffffffffffffffffffffffffffffffffffffff021916908373ffffffffffffffffffffffffffffffffffffffff1602179055508073ffffffffffffffffffffffffffffffffffffffff16600073ffffffffffffffffffffffffffffffffffffffff167f8be0079c531659141344cd1fd0a4f28419497f9722a3daafe3b4186f6b6457e060405160405180910390a35060008060146101000a81548160ff0219169083151502179055506100f0565b600033905090565b6117b8806100ff6000396000f3fe608060405234801561001057600080fd5b50600436106100ea5760003560e01c80635c975abb1161008c5780638da5cb5b116100665780638da5cb5b1461022757806399ea8c9f14610245578063ed7088bd14610276578063f2fde38b146102a8576100ea565b80635c975abb146101cd578063642f9163146101eb578063715018a61461021d576100ea565b8063473e9914116100c8578063473e99141461015d578063478d7290146101795780635911340214610195578063594e55a0146101b1576100ea565b80632ab47acb146100ef57806335f342321461010b57806341fe98ab1461013f575b600080fd5b610109600480360381019061010491906110f4565b6102c4565b005b61012560048036038101906101209190611135565b610356565b6040516101369594939291906115cc565b60405180910390f35b6101476104c9565b6040516101549190611573565b60405180910390f35b6101776004803603810190610172919061119a565b6104cf565b005b610193600480360381019061018e9190611255565b6105a2565b005b6101af60048036038101906101aa919061115e565b6106db565b005b6101cb60048036038101906101c6919061115e565b6107a3565b005b6101d561086b565b6040516101e29190611463565b60405180910390f35b61020560048036038101906102009190611135565b610881565b6040516102149392919061147e565b60405180910390f35b610225610a7a565b005b61022f610bcf565b60405161023c9190611448565b60405180910390f35b61025f600480360381019061025a9190611219565b610bf8565b60405161026d9291906114c3565b60405180910390f35b610290600480360381019061028b9190611135565b610cf8565b60405161029f9392919061158e565b60405180910390f35b6102c260048036038101906102bd91906110cb565b610dc7565b005b60016000815480929190600101919050555060015460036000600154815260200190815260200160002060000181905550806003600060015481526020019081526020016000206001019080519060200190610321929190610f93565b50600060036000600154815260200190815260200160002060020160006101000a81548160ff02191690831515021790555050565b6004602052806000526040600020600091509050806000015490806001018054600181600116156101000203166002900480601f0160208091040260200160405190810160405280929190818152602001828054600181600116156101000203166002900480156104085780601f106103dd57610100808354040283529160200191610408565b820191906000526020600020905b8154815290600101906020018083116103eb57829003601f168201915b505050505090806002018054600181600116156101000203166002900480601f0160208091040260200160405190810160405280929190818152602001828054600181600116156101000203166002900480156104a65780601f1061047b576101008083540402835291602001916104a6565b820191906000526020600020905b81548152906001019060200180831161048957829003601f168201915b5050505050908060030154908060050160009054906101000a900460ff16905085565b60015481565b60026000815480929190600101919050555082600460008581526020019081526020016000206000018190555081600460008581526020019081526020016000206001019080519060200190610526929190610f93565b5080600460008581526020019081526020016000206002019080519060200190610551929190610f93565b5060006004600085815260200190815260200160002060050160006101000a81548160ff02191690831515021790555060006004600085815260200190815260200160002060030181905550505050565b82600115156003600083815260200190815260200160002060020160009054906101000a900460ff1615151461060d576040517f08c379a000000000000000000000000000000000000000000000000000000000815260040161060490611513565b60405180910390fd5b6004600084815260200190815260200160002060030160008154809291906001019190505550600060046000858152602001908152602001600020600301549050604051806080016040528082815260200186815260200184815260200142815250600460008681526020019081526020016000206004016000838152602001908152602001600020600082015181600001556020820151816001015560408201518160020190805190602001906106c6929190610f93565b50606082015181600301559050505050505050565b6106e3610f8b565b73ffffffffffffffffffffffffffffffffffffffff166000809054906101000a900473ffffffffffffffffffffffffffffffffffffffff1673ffffffffffffffffffffffffffffffffffffffff1614610771576040517f08c379a000000000000000000000000000000000000000000000000000000000815260040161076890611553565b60405180910390fd5b806004600084815260200190815260200160002060050160006101000a81548160ff0219169083151502179055505050565b6107ab610f8b565b73ffffffffffffffffffffffffffffffffffffffff166000809054906101000a900473ffffffffffffffffffffffffffffffffffffffff1673ffffffffffffffffffffffffffffffffffffffff1614610839576040517f08c379a000000000000000000000000000000000000000000000000000000000815260040161083090611553565b60405180910390fd5b806003600084815260200190815260200160002060020160006101000a81548160ff0219169083151502179055505050565b60008060149054906101000a900460ff16905090565b606080600083600115156004600083815260200190815260200160002060050160009054906101000a900460ff161515146108f1576040517f08c379a00000000000000000000000000000000000000000000000000000000081526004016108e890611533565b60405180910390fd5b60046000868152602001908152602001600020600101600460008781526020019081526020016000206002016004600088815260200190815260200160002060030154828054600181600116156101000203166002900480601f0160208091040260200160405190810160405280929190818152602001828054600181600116156101000203166002900480156109c95780601f1061099e576101008083540402835291602001916109c9565b820191906000526020600020905b8154815290600101906020018083116109ac57829003601f168201915b50505050509250818054600181600116156101000203166002900480601f016020809104026020016040519081016040528092919081815260200182805460018160011615610100020316600290048015610a655780601f10610a3a57610100808354040283529160200191610a65565b820191906000526020600020905b815481529060010190602001808311610a4857829003601f168201915b50505050509150935093509350509193909250565b610a82610f8b565b73ffffffffffffffffffffffffffffffffffffffff166000809054906101000a900473ffffffffffffffffffffffffffffffffffffffff1673ffffffffffffffffffffffffffffffffffffffff1614610b10576040517f08c379a0000000000000000000000000000000000000000000000000000000008152600401610b0790611553565b60405180910390fd5b600073ffffffffffffffffffffffffffffffffffffffff166000809054906101000a900473ffffffffffffffffffffffffffffffffffffffff1673ffffffffffffffffffffffffffffffffffffffff167f8be0079c531659141344cd1fd0a4f28419497f9722a3daafe3b4186f6b6457e060405160405180910390a360008060006101000a81548173ffffffffffffffffffffffffffffffffffffffff021916908373ffffffffffffffffffffffffffffffffffffffff160217905550565b60008060009054906101000a900473ffffffffffffffffffffffffffffffffffffffff16905090565b6060600060046000858152602001908152602001600020600401600084815260200190815260200160002060020160046000868152602001908152602001600020600401600085815260200190815260200160002060030154818054600181600116156101000203166002900480601f016020809104026020016040519081016040528092919081815260200182805460018160011615610100020316600290048015610ce65780601f10610cbb57610100808354040283529160200191610ce6565b820191906000526020600020905b815481529060010190602001808311610cc957829003601f168201915b50505050509150915091509250929050565b6003602052806000526040600020600091509050806000015490806001018054600181600116156101000203166002900480601f016020809104026020016040519081016040528092919081815260200182805460018160011615610100020316600290048015610daa5780601f10610d7f57610100808354040283529160200191610daa565b820191906000526020600020905b815481529060010190602001808311610d8d57829003601f168201915b5050505050908060020160009054906101000a900460ff16905083565b610dcf610f8b565b73ffffffffffffffffffffffffffffffffffffffff166000809054906101000a900473ffffffffffffffffffffffffffffffffffffffff1673ffffffffffffffffffffffffffffffffffffffff1614610e5d576040517f08c379a0000000000000000000000000000000000000000000000000000000008152600401610e5490611553565b60405180910390fd5b600073ffffffffffffffffffffffffffffffffffffffff168173ffffffffffffffffffffffffffffffffffffffff161415610ecd576040517f08c379a0000000000000000000000000000000000000000000000000000000008152600401610ec4906114f3565b60405180910390fd5b8073ffffffffffffffffffffffffffffffffffffffff166000809054906101000a900473ffffffffffffffffffffffffffffffffffffffff1673ffffffffffffffffffffffffffffffffffffffff167f8be0079c531659141344cd1fd0a4f28419497f9722a3daafe3b4186f6b6457e060405160405180910390a3806000806101000a81548173ffffffffffffffffffffffffffffffffffffffff021916908373ffffffffffffffffffffffffffffffffffffffff16021790555050565b600033905090565b828054600181600116156101000203166002900490600052602060002090601f016020900481019282601f10610fd457805160ff1916838001178555611002565b82800160010185558215611002579182015b82811115611001578251825591602001919060010190610fe6565b5b50905061100f9190611013565b5090565b61103591905b80821115611031576000816000905550600101611019565b5090565b90565b6000813590506110478161173d565b92915050565b60008135905061105c81611754565b92915050565b600082601f83011261107357600080fd5b81356110866110818261165a565b61162d565b915080825260208301602083018583830111156110a257600080fd5b6110ad8382846116ea565b50505092915050565b6000813590506110c58161176b565b92915050565b6000602082840312156110dd57600080fd5b60006110eb84828501611038565b91505092915050565b60006020828403121561110657600080fd5b600082013567ffffffffffffffff81111561112057600080fd5b61112c84828501611062565b91505092915050565b60006020828403121561114757600080fd5b6000611155848285016110b6565b91505092915050565b6000806040838503121561117157600080fd5b600061117f858286016110b6565b92505060206111908582860161104d565b9150509250929050565b6000806000606084860312156111af57600080fd5b60006111bd868287016110b6565b935050602084013567ffffffffffffffff8111156111da57600080fd5b6111e686828701611062565b925050604084013567ffffffffffffffff81111561120357600080fd5b61120f86828701611062565b9150509250925092565b6000806040838503121561122c57600080fd5b600061123a858286016110b6565b925050602061124b858286016110b6565b9150509250929050565b60008060006060848603121561126a57600080fd5b6000611278868287016110b6565b9350506020611289868287016110b6565b925050604084013567ffffffffffffffff8111156112a657600080fd5b6112b286828701611062565b9150509250925092565b6112c5816116a2565b82525050565b6112d4816116b4565b82525050565b60006112e582611686565b6112ef8185611691565b93506112ff8185602086016116f9565b6113088161172c565b840191505092915050565b6000611320602683611691565b91507f4f776e61626c653a206e6577206f776e657220697320746865207a65726f206160008301527f64647265737300000000000000000000000000000000000000000000000000006020830152604082019050919050565b6000611386601283611691565b91507f436865636b20746865207363686f6f6c496400000000000000000000000000006000830152602082019050919050565b60006113c6601383611691565b91507f436865636b207468652073747564656e744964000000000000000000000000006000830152602082019050919050565b6000611406602083611691565b91507f4f776e61626c653a2063616c6c6572206973206e6f7420746865206f776e65726000830152602082019050919050565b611442816116e0565b82525050565b600060208201905061145d60008301846112bc565b92915050565b600060208201905061147860008301846112cb565b92915050565b6000606082019050818103600083015261149881866112da565b905081810360208301526114ac81856112da565b90506114bb6040830184611439565b949350505050565b600060408201905081810360008301526114dd81856112da565b90506114ec6020830184611439565b9392505050565b6000602082019050818103600083015261150c81611313565b9050919050565b6000602082019050818103600083015261152c81611379565b9050919050565b6000602082019050818103600083015261154c816113b9565b9050919050565b6000602082019050818103600083015261156c816113f9565b9050919050565b60006020820190506115886000830184611439565b92915050565b60006060820190506115a36000830186611439565b81810360208301526115b581856112da565b90506115c460408301846112cb565b949350505050565b600060a0820190506115e16000830188611439565b81810360208301526115f381876112da565b9050818103604083015261160781866112da565b90506116166060830185611439565b61162360808301846112cb565b9695505050505050565b6000604051905081810181811067ffffffffffffffff8211171561165057600080fd5b8060405250919050565b600067ffffffffffffffff82111561167157600080fd5b601f19601f8301169050602081019050919050565b600081519050919050565b600082825260208201905092915050565b60006116ad826116c0565b9050919050565b60008115159050919050565b600073ffffffffffffffffffffffffffffffffffffffff82169050919050565b6000819050919050565b82818337600083830152505050565b60005b838110156117175780820151818401526020810190506116fc565b83811115611726576000848401525b50505050565b6000601f19601f8301169050919050565b611746816116a2565b811461175157600080fd5b50565b61175d816116b4565b811461176857600080fd5b50565b611774816116e0565b811461177f57600080fd5b5056fea26469706673582212206087fe1d7362609b80cc278020aef0bd07e36889b51797cd974a466d5fca274964736f6c63430006080033",
  "immutableReferences": {},
  "source": "pragma solidity ^0.6.0;\r\npragma experimental ABIEncoderV2;\r\n\r\nimport \"../node_modules/@Openzeppelin/contracts/access/Ownable.sol\";\r\nimport \"../node_modules/@Openzeppelin/contracts/utils/Pausable.sol\";\r\n\r\n\r\ncontract Certificates is Ownable,Pausable{\r\n    uint public schoolcount = 0;\r\n    uint studentcount = 0;\r\n    \r\n    struct School{\r\n        uint school_id;\r\n        string school_name;\r\n        bool registered;\r\n        //uint[] own_students;\r\n    }\r\n    \r\n    struct Cert{\r\n        uint cert_no;\r\n        uint school;\r\n        string thash;\r\n        uint256 time;\r\n    }\r\n    \r\n    struct Student{\r\n        uint256 aadhar_no;\r\n        string fname;\r\n        string lname;\r\n        uint certcount;\r\n        mapping(uint => Cert) certy;\r\n        bool register;\r\n        \r\n    }\r\n    \r\n    mapping(uint => School)public scl;\r\n    mapping(uint256 => Student)public student;\r\n    \r\n    modifier onlyRegisteredSchool(uint sch_id){\r\n        require(scl[sch_id].registered == true,\"Check the schoolId\");\r\n        _;\r\n    } \r\n     modifier onlyRegisteredStudent(uint stu_id){\r\n        require(student[stu_id].register == true,\"Check the studentId\");\r\n        _;\r\n    } \r\n    \r\n    function addSchool(string memory scl_name)public{\r\n        schoolcount++;\r\n        scl[schoolcount].school_id = schoolcount;\r\n        scl[schoolcount].school_name = scl_name;\r\n        scl[schoolcount].registered = false;\r\n        \r\n    }\r\n\r\n    function registerschool(uint sch_id,bool reg)public onlyOwner{\r\n       scl[sch_id].registered = reg;\r\n    }\r\n\r\n    function addStudent(uint aadhar,string memory f_name,string memory l_name)public{\r\n        studentcount++;\r\n        student[aadhar].aadhar_no = aadhar;\r\n        student[aadhar].fname = f_name;\r\n        student[aadhar].lname = l_name;\r\n        student[aadhar].register = false;\r\n        student[aadhar].certcount = 0;\r\n    }\r\n    \r\n    function registerstudent(uint aadhar,bool reg)public onlyOwner{\r\n       student[aadhar].register = reg;\r\n    }\r\n\r\n    function addCertificate(uint schoolId,uint studentaadhar,string memory hash)public onlyRegisteredSchool(schoolId){ \r\n    student[studentaadhar].certcount++;\r\n    uint x = student[studentaadhar].certcount;\r\n    student[studentaadhar].certy[x] = Cert(x,schoolId,hash,now);\r\n        //emit add(Transact_id);)\r\n        //emit add(Transact_id);\r\n    }\r\n    \r\n \r\n  \r\n    function getStudent(uint aadhar)public view onlyRegisteredStudent(aadhar) returns(string memory,string memory,uint){\r\n        return (student[aadhar].fname,student[aadhar].lname,student[aadhar].certcount);\r\n    }\r\n    \r\n    function getCertificates(uint aadhar,uint count)public view returns(string memory , uint){\r\n        return (student[aadhar].certy[count].thash,student[aadhar].certy[count].time);\r\n    }\r\n    \r\n    \r\n}\r\n\r\n",
  "sourcePath": "E:\\Github\\Certichain\\contracts\\Certificate.sol",
  "compiler": {
    "name": "solc",
    "version": "0.6.8+commit.0bbfe453.Emscripten.clang"
  },
  "schemaVersion": "3.1.0",
  "updatedAt": "2020-06-13T02:40:42.887Z",
  "networkType": "ethereum",
  "devdoc": {
    "methods": {
      "owner()": {
        "details": "Returns the address of the current owner."
      },
      "paused()": {
        "details": "Returns true if the contract is paused, and false otherwise."
      },
      "renounceOwnership()": {
        "details": "Leaves the contract without owner. It will not be possible to call `onlyOwner` functions anymore. Can only be called by the current owner.     * NOTE: Renouncing ownership will leave the contract without an owner, thereby removing any functionality that is only available to the owner."
      },
      "transferOwnership(address)": {
        "details": "Transfers ownership of the contract to a new account (`newOwner`). Can only be called by the current owner."
      }
    }
  },
  "userdoc": {
    "methods": {}
  }
}